{
  "contractName": "Election",
  "abi": [
    {
      "inputs": [],
      "payable": false,
      "stateMutability": "nonpayable",
      "type": "constructor"
    },
    {
      "constant": true,
      "inputs": [
        {
          "internalType": "uint256",
          "name": "",
          "type": "uint256"
        }
      ],
      "name": "candidates",
      "outputs": [
        {
          "internalType": "uint256",
          "name": "candidate_id",
          "type": "uint256"
        },
        {
          "internalType": "string",
          "name": "first_name",
          "type": "string"
        },
        {
          "internalType": "string",
          "name": "last_name",
          "type": "string"
        },
        {
          "internalType": "uint256",
          "name": "voteCount",
          "type": "uint256"
        }
      ],
      "payable": false,
      "stateMutability": "view",
      "type": "function"
    },
    {
      "constant": true,
      "inputs": [],
      "name": "count",
      "outputs": [
        {
          "internalType": "uint256",
          "name": "",
          "type": "uint256"
        }
      ],
      "payable": false,
      "stateMutability": "view",
      "type": "function"
    },
    {
      "constant": true,
      "inputs": [
        {
          "internalType": "uint256",
          "name": "",
          "type": "uint256"
        }
      ],
      "name": "voters",
      "outputs": [
        {
          "internalType": "uint256",
          "name": "voter_id",
          "type": "uint256"
        },
        {
          "internalType": "bool",
          "name": "voted",
          "type": "bool"
        }
      ],
      "payable": false,
      "stateMutability": "view",
      "type": "function"
    },
    {
      "constant": false,
      "inputs": [
        {
          "internalType": "string",
          "name": "_first_name",
          "type": "string"
        },
        {
          "internalType": "string",
          "name": "_last_name",
          "type": "string"
        }
      ],
      "name": "addCandidate",
      "outputs": [],
      "payable": false,
      "stateMutability": "nonpayable",
      "type": "function"
    },
    {
      "constant": false,
      "inputs": [
        {
          "internalType": "uint256",
          "name": "_candidateId",
          "type": "uint256"
        },
        {
          "internalType": "uint256",
          "name": "_voterId",
          "type": "uint256"
        }
      ],
      "name": "vote",
      "outputs": [],
      "payable": false,
      "stateMutability": "nonpayable",
      "type": "function"
    },
    {
      "constant": true,
      "inputs": [],
      "name": "getCandidates",
      "outputs": [
        {
          "components": [
            {
              "internalType": "uint256",
              "name": "candidate_id",
              "type": "uint256"
            },
            {
              "internalType": "string",
              "name": "first_name",
              "type": "string"
            },
            {
              "internalType": "string",
              "name": "last_name",
              "type": "string"
            },
            {
              "internalType": "uint256",
              "name": "voteCount",
              "type": "uint256"
            }
          ],
          "internalType": "struct Election.Candidate[]",
          "name": "",
          "type": "tuple[]"
        }
      ],
      "payable": false,
      "stateMutability": "view",
      "type": "function"
    },
    {
      "constant": true,
      "inputs": [],
      "name": "getElectionResult",
      "outputs": [
        {
          "components": [
            {
              "internalType": "uint256",
              "name": "candidate_id",
              "type": "uint256"
            },
            {
              "internalType": "string",
              "name": "first_name",
              "type": "string"
            },
            {
              "internalType": "string",
              "name": "last_name",
              "type": "string"
            },
            {
              "internalType": "uint256",
              "name": "voteCount",
              "type": "uint256"
            }
          ],
          "internalType": "struct Election.ElectionResult[]",
          "name": "",
          "type": "tuple[]"
        }
      ],
      "payable": false,
      "stateMutability": "view",
      "type": "function"
    }
  ],
  "bytecode": "0x608060405260016002553480156200001657600080fd5b50620000936040518060400160405280600581526020017f54756c73690000000000000000000000000000000000000000000000000000008152506040518060400160405280600781526020017f47616262617264000000000000000000000000000000000000000000000000008152506200019160201b60201c565b6200010f6040518060400160405280600681526020017f446f6e616c6400000000000000000000000000000000000000000000000000008152506040518060400160405280600581526020017f5472756d700000000000000000000000000000000000000000000000000000008152506200019160201b60201c565b6200018b6040518060400160405280600781526020017f48696c6c617279000000000000000000000000000000000000000000000000008152506040518060400160405280600781526020017f436c696e746f6e000000000000000000000000000000000000000000000000008152506200019160201b60201c565b62000314565b6200019b6200023d565b604051806080016040528060025481526020018481526020018381526020016000815250905080600160006002548152602001908152602001600020600082015181600001556020820151816001019080519060200190620001ff92919062000265565b5060408201518160020190805190602001906200021e92919062000265565b5060608201518160030155905050600160025401600281905550505050565b6040518060800160405280600081526020016060815260200160608152602001600081525090565b828054600181600116156101000203166002900490600052602060002090601f016020900481019282601f10620002a857805160ff1916838001178555620002d9565b82800160010185558215620002d9579182015b82811115620002d8578251825591602001919060010190620002bb565b5b509050620002e89190620002ec565b5090565b6200031191905b808211156200030d576000816000905550600101620002f3565b5090565b90565b61105d80620003246000396000f3fe608060405234801561001057600080fd5b506004361061007d5760003560e01c80633477ee2e1161005b5780633477ee2e146100da578063b384abef1461010d578063ca3eb44314610129578063da58c7d9146101475761007d565b806306661abd1461008257806306a49fce146100a057806326541b56146100be575b600080fd5b61008a610178565b6040516100979190610e0b565b60405180910390f35b6100a861017e565b6040516100b59190610da7565b60405180910390f35b6100d860048036036100d39190810190610a11565b610372565b005b6100f460048036036100ef9190810190610a7d565b610418565b6040516101049493929190610e4f565b60405180910390f35b61012760048036036101229190810190610aa6565b610578565b005b610131610633565b60405161013e9190610dc9565b60405180910390f35b610161600480360361015c9190810190610a7d565b61085a565b60405161016f929190610e26565b60405180910390f35b60025481565b6060806002546040519080825280602002602001820160405280156101bd57816020015b6101aa61088b565b8152602001906001900390816101a25790505b50905060008090505b60025481101561036a576001600082815260200190815260200160002060405180608001604052908160008201548152602001600182018054600181600116156101000203166002900480601f0160208091040260200160405190810160405280929190818152602001828054600181600116156101000203166002900480156102915780601f1061026657610100808354040283529160200191610291565b820191906000526020600020905b81548152906001019060200180831161027457829003601f168201915b50505050508152602001600282018054600181600116156101000203166002900480601f0160208091040260200160405190810160405280929190818152602001828054600181600116156101000203166002900480156103335780601f1061030857610100808354040283529160200191610333565b820191906000526020600020905b81548152906001019060200180831161031657829003601f168201915b5050505050815260200160038201548152505082828151811061035257fe5b602002602001018190525080806001019150506101c6565b508091505090565b61037a6108b3565b6040518060800160405280600254815260200184815260200183815260200160008152509050806001600060025481526020019081526020016000206000820151816000015560208201518160010190805190602001906103dc9291906108db565b5060408201518160020190805190602001906103f99291906108db565b5060608201518160030155905050600160025401600281905550505050565b6001602052806000526040600020600091509050806000015490806001018054600181600116156101000203166002900480601f0160208091040260200160405190810160405280929190818152602001828054600181600116156101000203166002900480156104ca5780601f1061049f576101008083540402835291602001916104ca565b820191906000526020600020905b8154815290600101906020018083116104ad57829003601f168201915b505050505090806002018054600181600116156101000203166002900480601f0160208091040260200160405190810160405280929190818152602001828054600181600116156101000203166002900480156105685780601f1061053d57610100808354040283529160200191610568565b820191906000526020600020905b81548152906001019060200180831161054b57829003601f168201915b5050505050908060030154905084565b60008082815260200190815260200160002060010160009054906101000a900460ff16156105db576040517f08c379a00000000000000000000000000000000000000000000000000000000081526004016105d290610deb565b60405180910390fd5b6001600083815260200190815260200160002060030160008154809291906001019190505550600160008083815260200190815260200160002060010160006101000a81548160ff0219169083151502179055505050565b60608060025460405190808252806020026020018201604052801561067257816020015b61065f61095b565b8152602001906001900390816106575790505b50905060008090505b60025481101561085257604051806080016040528060016000848152602001908152602001600020600001548152602001600160008481526020019081526020016000206001018054600181600116156101000203166002900480601f0160208091040260200160405190810160405280929190818152602001828054600181600116156101000203166002900480156107565780601f1061072b57610100808354040283529160200191610756565b820191906000526020600020905b81548152906001019060200180831161073957829003601f168201915b50505050508152602001600160008481526020019081526020016000206002018054600181600116156101000203166002900480601f01602080910402602001604051908101604052809291908181526020018280546001816001161561010002031660029004801561080a5780601f106107df5761010080835404028352916020019161080a565b820191906000526020600020905b8154815290600101906020018083116107ed57829003601f168201915b50505050508152602001600160008481526020019081526020016000206003015481525082828151811061083a57fe5b6020026020010181905250808060010191505061067b565b508091505090565b60006020528060005260406000206000915090508060000154908060010160009054906101000a900460ff16905082565b6040518060800160405280600081526020016060815260200160608152602001600081525090565b6040518060800160405280600081526020016060815260200160608152602001600081525090565b828054600181600116156101000203166002900490600052602060002090601f016020900481019282601f1061091c57805160ff191683800117855561094a565b8280016001018555821561094a579182015b8281111561094957825182559160200191906001019061092e565b5b5090506109579190610983565b5090565b6040518060800160405280600081526020016060815260200160608152602001600081525090565b6109a591905b808211156109a1576000816000905550600101610989565b5090565b90565b600082601f8301126109b957600080fd5b81356109cc6109c782610ecf565b610ea2565b915080825260208301602083018583830111156109e857600080fd5b6109f3838284610fb0565b50505092915050565b600081359050610a0b81611003565b92915050565b60008060408385031215610a2457600080fd5b600083013567ffffffffffffffff811115610a3e57600080fd5b610a4a858286016109a8565b925050602083013567ffffffffffffffff811115610a6757600080fd5b610a73858286016109a8565b9150509250929050565b600060208284031215610a8f57600080fd5b6000610a9d848285016109fc565b91505092915050565b60008060408385031215610ab957600080fd5b6000610ac7858286016109fc565b9250506020610ad8858286016109fc565b9150509250929050565b6000610aee8383610cb5565b905092915050565b6000610b028383610d1f565b905092915050565b6000610b1582610f1b565b610b1f8185610f56565b935083602082028501610b3185610efb565b8060005b85811015610b6d5784840389528151610b4e8582610ae2565b9450610b5983610f3c565b925060208a01995050600181019050610b35565b50829750879550505050505092915050565b6000610b8a82610f26565b610b948185610f67565b935083602082028501610ba685610f0b565b8060005b85811015610be25784840389528151610bc38582610af6565b9450610bce83610f49565b925060208a01995050600181019050610baa565b50829750879550505050505092915050565b610bfd81610f9a565b82525050565b6000610c0e82610f31565b610c188185610f78565b9350610c28818560208601610fbf565b610c3181610ff2565b840191505092915050565b6000610c4782610f31565b610c518185610f89565b9350610c61818560208601610fbf565b610c6a81610ff2565b840191505092915050565b6000610c82601383610f89565b91507f566f74657220616c656164792020766f746564000000000000000000000000006000830152602082019050919050565b6000608083016000830151610ccd6000860182610d89565b5060208301518482036020860152610ce58282610c03565b91505060408301518482036040860152610cff8282610c03565b9150506060830151610d146060860182610d89565b508091505092915050565b6000608083016000830151610d376000860182610d89565b5060208301518482036020860152610d4f8282610c03565b91505060408301518482036040860152610d698282610c03565b9150506060830151610d7e6060860182610d89565b508091505092915050565b610d9281610fa6565b82525050565b610da181610fa6565b82525050565b60006020820190508181036000830152610dc18184610b0a565b905092915050565b60006020820190508181036000830152610de38184610b7f565b905092915050565b60006020820190508181036000830152610e0481610c75565b9050919050565b6000602082019050610e206000830184610d98565b92915050565b6000604082019050610e3b6000830185610d98565b610e486020830184610bf4565b9392505050565b6000608082019050610e646000830187610d98565b8181036020830152610e768186610c3c565b90508181036040830152610e8a8185610c3c565b9050610e996060830184610d98565b95945050505050565b6000604051905081810181811067ffffffffffffffff82111715610ec557600080fd5b8060405250919050565b600067ffffffffffffffff821115610ee657600080fd5b601f19601f8301169050602081019050919050565b6000819050602082019050919050565b6000819050602082019050919050565b600081519050919050565b600081519050919050565b600081519050919050565b6000602082019050919050565b6000602082019050919050565b600082825260208201905092915050565b600082825260208201905092915050565b600082825260208201905092915050565b600082825260208201905092915050565b60008115159050919050565b6000819050919050565b82818337600083830152505050565b60005b83811015610fdd578082015181840152602081019050610fc2565b83811115610fec576000848401525b50505050565b6000601f19601f8301169050919050565b61100c81610fa6565b811461101757600080fd5b5056fea365627a7a723158206a9044464d0398946c9924fdbae51d06c38fa0d41c7f6b9ce17d2a901c24e1276c6578706572696d656e74616cf564736f6c63430005100040",
  "source": "pragma solidity >=0.4.22 <0.7.0;\r\npragma experimental ABIEncoderV2;\r\n\r\ncontract Election  {\r\n    struct Candidate {\r\n        uint candidate_id;\r\n        string first_name;\r\n        string last_name;\r\n        uint voteCount;\r\n    }\r\n    \r\n    struct ElectionResult  {\r\n        uint candidate_id;\r\n        string first_name;\r\n        string last_name; \r\n        uint voteCount;\r\n    }\r\n\r\n    struct Voter {\r\n        uint voter_id;\r\n        bool voted;\r\n    }\r\n\r\n    mapping(uint  => Voter) public voters;\r\n\r\n    mapping(uint  => Candidate) public candidates;\r\n\r\n    // Store VoteArs Count\r\n    uint public count = 1;\r\n    \r\n    constructor() public {\r\n        addCandidate(\"Tulsi\",\"Gabbard\");\r\n        addCandidate(\"Donald\",\"Trump\");\r\n        addCandidate(\"Hillary\",\"Clinton\");   \r\n    }\r\n    \r\n    function addCandidate(string memory _first_name,string memory _last_name) public{\r\n        Candidate memory candidate = Candidate(count,_first_name,_last_name,0);\r\n        candidates[count] = candidate;\r\n        count = count + 1;\r\n    }\r\n    \r\n    function vote (uint _candidateId,uint _voterId) public {\r\n        \r\n        require(!voters[_voterId].voted,\"Voter aleady  voted\");\r\n        // update candidate vote Count\r\n        candidates[_candidateId].voteCount++;\r\n\r\n        //Update voter info to true\r\n        voters[_voterId].voted = true;\r\n        \r\n        // trigger voted event\r\n        //emit votedEvent(_candidateId);\r\n    }\r\n\r\n    function getCandidates() public view returns (Candidate[] memory){\r\n      Candidate[] memory candidateList = new Candidate[](count);\r\n      for (uint i = 0; i < count; i++) {\r\n          candidateList[i] = candidates[i];\r\n      }\r\n      return candidateList;\r\n    }\r\n    \r\n    function getElectionResult() public view returns (ElectionResult[] memory) {\r\n        ElectionResult [] memory result = new ElectionResult[](count);\r\n        for(uint  i =0; i < count; i++){\r\n            result[i] = ElectionResult(candidates[i].candidate_id,candidates[i].first_name,candidates[i].last_name,candidates[i].voteCount);\r\n        }\r\n        return result;\r\n    }\r\n}",
  "sourcePath": "/Users/sachinsharma/evoting-react/contracts/Election.sol",
  "compiler": {
    "name": "solc",
    "version": "0.5.16+commit.9c3226ce.Emscripten.clang"
  },
  "schemaVersion": "3.0.23",
  "updatedAt": "2020-04-05T19:56:52.450Z",
  "networkType": "ethereum",
  "devdoc": {
    "methods": {}
  },
  "userdoc": {
    "methods": {}
  }
}